:02000000D02A04
:0A00060000000000000000000800E8
:100010001D3083120313FC009130FD00FD0B0E28F0
:06002000FC0B0E28080095
:10002600423083120313FD00FD0B17280000080061
:1000360083120313EF1B21288612222886166F1BB4
:100046002628061227280616EF1A2B2886112C2892
:1000560086156F1A30280611312806155C183528C2
:10006600061436280610861403208610EF193D283C
:1000760086123E2886166F1942280612432806164F
:10008600EF1847288611482886156F184C28061140
:100096004D2806155C185128061452280610861499
:1000A600032086105C1C592808205A2813200800B3
:1000B60083120313F801F9011030FC00710DF80DDD
:1000C600F90D7408F8027508031C750FF902031878
:1000D60073287408F80775080318750FF9070310D5
:0A00E600F00DF10DFC0B612808007D
:0E00F0001D3083120313FD00FD0B7C28080059
:1000FE0083120313ED0105306D0203188D286D0870
:10010E006C07840020308000ED0A82286D086C0791
:10011E0084008001ED036D086C07EE000A30F400D8
:10012E00F5016A08F0006B08F1005B207808F0001A
:10013E007908F1003030F0076E08840070088000F6
:10014E000A30F400F5016A08F0006B08F1005B203C
:10015E007008EA007108EB0000307106031DB92823
:10016E0000307006031DBC28BE28ED03922808003F
:10017E00831203135C106A08EF001B205C14080046
:0E018E008312031355088A00540882000800EB
:10019C00710DF80DF90D7408F8027508031C750F34
:1001AC00F902F00DF10D0F30FC00710DF80DF90D89
:1001BC007408701CE728F8027508031C750FF90207
:1001CC00EC28F80775080318750FF907F00DF10DF9
:1001DC00FC0BDB287018F8287408F807750803184E
:0801EC00750FF907000008007F
:1001F40083120313E601E7016108E8006208E900DD
:1002040080306206F00080307002031D0B2900303C
:100214006102031819290130E6000030E700610883
:10022400003CE8006208031C013EE901E902680899
:10023400EA006908EB006308EC007F200630E40064
:100244000030E5006508003C031D2A296408003CD1
:100254000318452964086307F20001306402F000C2
:100264000030031C013E6502F1007008630784003E
:100274000008F00072088400700880000130E40275
:10028400031CE503242963088400203080006608E9
:10029400670403196329E401E50164086307840022
:1002A4000008203A031D5A29E40A0319E50A4F29D4
:1002B4000130E402031CE5036408630784002D3065
:0402C40080000800AE
:1002C800831203137408003A031D73297508003A52
:1002D800031D7329FF30F0007F30F100CC29831211
:1002E8000313FD01F901F8017108700403190034C2
:1002F80071087506FA00FA1BFD09FB01F51F89292B
:10030800F409F509F40A0319F50AF11F9029F0090F
:10031800F109F00A0319F10A71087504FA00FA1BC9
:10032800A529CE207B18B829FD1F0034F009F10952
:10033800F00A0319F10AF809F909F80A0319F90A80
:100348000034F51FB429F11BB0297108F9007008B1
:10035800F800F101F0019829F101F001F00A0034E8
:10036800F109F009FB0A9529F80A0319F90A740832
:100378007802031D982975087902031D9829F90147
:10038800F801F00A0319F10AF11F98290000FF3457
:0203980008005B
:10039A00831203139F01C0309F043109F0007008D3
:1003AA0083169F051F179F1783126108F000F00D2F
:1003BA007010F00D7010F00D701070089F041F146B
:1003CA0078201F151F1DEB290000E7291F101E08A2
:1003DA00F100F00183161E08F0040030F104080051
:1003EA00072A803083120313E1001A2AC030E10081
:1003FA001A2A9430E1001A2AD430E1001A2A8030ED
:10040A00E1001A2A831203136108013A0319F62933
:10041A006108023A0319FB296108033A0319FE2904
:10042A006108043A0319012A042A6203F0006108E8
:10043A00F0077008E1007008EF001B205C10E4016F
:10044A0064086307840000080319332A64086307F1
:10045A0084000008EA00BF20E40A252A5C14080088
:10046A0083160313861006100611861106128612C9
:10047A0083128610061086120612861106110820AB
:10048A0008200820861506158614032086100820E1
:10049A00861403208610082086140320861008205C
:1004AA00061186140320861008208614032086105D
:1004BA0086118616861403208610082086120615D1
:1004CA00861403208610061186140320861008203D
:1004DA008614032086100615861403208610082029
:1004EA00061186140320861086160616861506152A
:0C04FA0086140320861008205C14080003
:10050600FF3083120313D900FF30DA00FF30DB001F
:10051600FF309F01C0309F043109F0007008831638
:0C0526009F051F179F1783121F14080069
:1005320083120313FB01FA01F9018030F800F10C78
:10054200F00C031CAD2A7408F90775080318750F1F
:10055200FA070318FB0A0310F01FB52A7408FA07FA
:1005620075080318750FFB07FB0CFA0CF90CF80C55
:10057200031CA02A7B08F3007A08F2007908F10034
:060582007808F0000800FB
:10058800C7208A110A128000840AD40A0319D50ADE
:08059800F003031DC42A080052
:1005A000D62335220630FB001330FC00AD30FD00B1
:1005B000FD0BD82AFC0BD82AFB0BD82A0000000020
:1005C00083220630FB001330FC00AD30FD00FD0B34
:1005D000E72AFC0BE72AFB0BE72A00000000831642
:1005E0008801831288010130E1000130E2002030EF
:1005F000E300F5210230E1000230E2004230E30086
:10060000F5212930FB009630FC007F30FD00FD0B0A
:10061000072BFC0B072BFB0B072B0130EF001B20DC
:100620000130E1000130E2003430E300F521023016
:10063000E1000230E2004A30E300F5212930FB00FE
:100640009630FC007F30FD00FD0B242BFC0B242B8F
:10065000FB0B242B0130EF001B20E101CD217008A2
:100660008312DF007108E0000230FB000430FC0060
:10067000BA30FD00FD0B3A2BFC0B3A2BFB0B3A2B4F
:1006800000005F08F0006008F1003208F400330851
:10069000F50099220A30F4000030F500642170085A
:1006A000DD007108DE006830FC00E430FD00FD0B69
:1006B000572BFC0B572B00005D08E1005E08E200A1
:1006C0005630E300FA206830FC00E430FD00FD0BFA
:1006D000672BFC0B672B00000130EF001B208030E4
:1006E000F00080305E067002031D782B5D08233C0D
:1006F00003187C2B08177D2B08130130E100013013
:10070000E2002930E300F5210130E1000A30E20087
:100710005630E300F5211130FB003C30FC00CB30BB
:10072000FD00FD0B912BFC0B912BFB0B912B013052
:08073000EF001B202D2B9B2B79
:1007AC0020308400343083120313F000A130D400C5
:0807BC000330D500C42208003F
:100742002034433453344534333433343134203455
:02075200003471
:10075400543465346D34703420343D3420340034E2
:020764000F3450
:040766000534003422
:10076A002034543445344D345034453452344134B1
:0C077A00543455345234453420340034DB
:10078600503452344F344A344534433454340034AC
:10079600203443344F344E34543452344F344C3472
:0407A60020340034C7
:02400E004A2F37
:00000001FF
